:100000000000022001010000B9040000B10400005A
:10001000B1040000B1040000B104000000000000C1
:10002000000000000000000000000000B904000013
:10003000B904000000000000B9040000B904000089
:10004000B9040000B904000035050000B90400003F
:10005000B9040000B9040000B9040000B9040000AC
:10006000B9040000B9040000B9040000B90400009C
:10007000B9040000B9040000B9040000B90400008C
:10008000B9040000B9040000B9040000B90400007C
:10009000B9040000B9040000B9040000B90400006C
:1000A000B9040000B9040000B9040000B90400005C
:1000B000B9040000B9040000B9040000B90400004C
:1000C000B9040000B9040000B9040000B90400003C
:1000D000B9040000B9040000B9040000B90400002C
:1000E000B9040000B9040000B9040000B90400001C
:1000F000B9040000B9040000B9040000B90400000C
:1001000080B56F464EF68850CEF20000016840F28E
:10011000000941F47001016049F2C011BFF34F8F33
:10012000BFF36F8FC0F28009C0F28001B1EB09010B
:1001300000F0BF808A08012A4FF0010388BF8B08B6
:10014000102940F6F0214FF0010203F0030EC0F237
:10015000010101D200238EE0043B02EB93020C2B41
:1001600002F0030C02D24FF0000830E022F003034B
:100170004FEA830800244FF0FC5500BF085909EBF3
:1001800004020E195051706802F1FC525060B068C0
:10019000043B9060F06804F14004D0603069106165
:1001A00070695061B0699061F069D061306A106225
:1001B000706A5062B06A9062F06AD062306B10630D
:1001C000706B5063B06B9063F06BD063D6D1BCF1B1
:1001D000000F43464FD051F8282009F1FC5444F851
:1001E000282048F0010251F82230BCF1010F44F8F8
:1001F000223048F0020251F8223044F8223048F010
:10020000030251F8223044F8223008F1040332D0BE
:1002100051F82320BCF1020F44F8232043F00102DF
:1002200051F8225044F8225043F0020251F8225073
:1002300044F8225043F0030251F8223044F82230AF
:1002400008F1080317D051F8232044F8232043F085
:10025000010251F8226044F8226043F0020251F892
:10026000226044F8226043F0030251F8223044F83F
:10027000223008F10C03BEF1000F1AD051F82350C0
:1002800009EB83064FF0FC52BEF1010FB55010D0C0
:100290005E1C09EB860551F82660BEF1020FAE50D8
:1002A00007D09A1C51F8221009EB82004FF0FC5243
:1002B000815049F2C0104BF2C031C2F20000C2F2CC
:1002C0000001091A00F0B1808A08012A4FF00103E9
:1002D00088BF8B08102949F6B0414FF0010203F0A6
:1002E000030EC0F2010101D2002387E0043B02EBC0
:1002F00093020C2B02F0030C02D24FF000082BE00B
:1003000022F003034FEA8308002400BF0E590D19A1
:1003100006516A6806197260AA68043BB260EA680E
:1003200004F14004F2602A6932616A697261AA6963
:10033000B261EA69F2612A6A32626A6A7262AA6A20
:10034000B262EA6AF2622A6B32636A6B7263AA6B08
:10035000B263EA6BF263D9D1BCF1000F43464DD0D2
:1003600051F82830BCF1010F40F8283048F0010363
:1003700051F8234040F8234048F0020351F823404D
:1003800040F8234048F0030351F8234040F823404D
:1003900008F1040332D051F82340BCF1020F40F8B9
:1003A000234043F0010451F8245040F8245043F016
:1003B000020451F8245043F0030340F8245051F84C
:1003C000234040F8234008F1080317D051F8236078
:1003D00040F8236043F0010651F8265040F82650BB
:1003E00043F0020651F8265043F0030340F826502C
:1003F00051F8236040F8236008F10C03BEF1000FB0
:1004000013D051F82320BEF1010F40F823200CD067
:100410005A1C51F82260BEF1020F40F8226004D04D
:100420009A1C51F8221040F822104CF278214BF21D
:10043000C030C2F20101C2F20000884210D2002294
:1004400040F8042B88420BD240F8042B884207D294
:1004500040F8042B884203D240F8042B8842EFD3A3
:100460006846403888421DD94CF27821C2F2010119
:100470004BF6EF62CDF6AD620B4600BF0E1DB042EB
:100480001A600FD901F10806B0425A600AD901F189
:100490000C06B0429A6005D91031DA60884203F147
:1004A0001003EBD8BFF34F8FBFF36F8F02F00AFA40
:1004B00080B56F4600F004F880B56F4630BFFDE7A9
:1004C00080B56F4640F21850C5F200004FF400119D
:1004D000016040F8101C4FF48001016040F8101CCE
:1004E0004FF40041016040F8101C4FF08071016032
:1004F00040F8101C4FF40021016040F8101C4FF030
:100500008051016040F80C1C4FF40061016040F81C
:100510000C1C4FF00041016040F80C1C2021C0F879
:100520000013C0F8F4124FF08041016040F80C1C39
:1005300030BFFDE7D0B502AF42F21C14C4F2000494
:1005400000F028F82068002808BFD0BD00224CF237
:1005500048212260C2F2010148690B69984204BF38
:10056000CA60D0BDB2EB902F0CD14BF2C052C2F298
:100570000002125C01306FF39F204861C4F8002430
:10058000D0BD00BF4EF2A472C0F200024FF48061F1
:1005900008F0B6F8B0B502AF42F20811C4F200019B
:1005A000086818B34CF248234BF2C03C4FF0000EE1
:1005B000C2F20103C2F2000C02E000BF0868A8B159
:1005C000C1F800E0D1F8102458689D68441C6FF30E
:1005D0005F24AC42BFF35F8FF0D0B0F5007F0FD245
:1005E0000CF80020BFF35F8F5C60E7E7C869002864
:1005F00008BFB0BD0020C8610F20C1F87803B0BDAE
:100600004EF29472C0F200024FF4007108F078F8D4
:10061000F0B503AF2DE9000FE5B06FF0080252FA14
:1006200081F2172A089000F25580DFE802F00D15DC
:1006300053531553535353535353535353535353C8
:1006400053535353530D00BF089865B0BDE8000FD6
:10065000BDE8F04000F048BA089800F045FA4BF6C3
:10066000482BC2F2000B9BF8F3050238032800F276
:10067000D181DFE810F00500A7014300BB0000BFF7
:100680009BF8F205012840F0D281DBF8EC25652AC1
:1006900080F018820BF5B16138A808F02AFA38AA60
:1006A00007CA38AC002820461CBF0022012108F0F0
:1006B000DFFC3898C00700F0B78104F108010BF1A6
:1006C0007800A8220CF0B1FF00219BF8F205CBF8CE
:1006D0008015ACE14BF64820C2F20000D0F884252A
:1006E000602A07D2024482F82015D0F8841501311F
:1006F000C0F8841565B0BDE8000FF0BDDBF86800F8
:10070000DBF8706041F2040A4CF24825C00708BFCC
:1007100005260996CEF2000AC2F20105DAF8002099
:10072000A869D5E90A13101A401843F10001AA611B
:100730004FF47A420023C5E90A010DF01BF8804608
:1007400089460BF1780031460CF0E2F8CDE90A0158
:100750000446DAF80020A8690E46D5E90A13101AF3
:10076000401843F10001AA614FF47A420023C5E921
:100770000A010CF0FFFF4FF47A72A4FB0245B0EBC4
:10078000080061EB090306FB025101284FF001024A
:100790004FF00106CDE9360388BF0646002B14BF93
:1007A0000246324620460CF0E5FFCDE90C0109A8CF
:1007B000389048F61360C0F2000039900AA83A90C9
:1007C00048F6E570C0F2000036A9CDE93C100CA94E
:1007D0003B90CDE93E104EF274414DF69D72089863
:1007E000C0F20001C0F2000238AB11E1DBF8680092
:1007F00041F20401DBF87020C0074FF0000B4CF20F
:100800004826CEF200014FF0080008BF02460792CA
:100810000992CDE90ABBC2F201060868B169D6E9BE
:100820000A23411A891843F10002CDE90321C6E9E0
:100830000A1244F24002B061C2F2010248F20320FF
:10084000115C38AC0591012144F24006115404F1C9
:10085000080004F1500A4FF000094FF0000800258D
:10086000C2F20106069000BF4EF2F431C0F2000160
:10087000481949594268204608F0FAFB3898C007E1
:1008800000F010810CAC06992046A82208350CF027
:10089000CCFE304609F0FCFC01204A9007980899EC
:1008A0004B903046224638AC0823CDE938BBCDE921
:1008B0003CBBCDF820B1CDE940BBCAE900BBCAE9D9
:1008C00002BBCDE944BB8DF840B1CDE900B401F0E5
:1008D0002DF948F2301170187158406819EB010970
:1008E00048EB0008602DCDF82890CDF82C80BBD1C6
:1008F000DDE903104FF47A4200230CF03BFF0D4674
:10090000059944F24002824648F20320C2F20102F5
:10091000115441F204004CF24826CEF20000C2F21B
:1009200001060268B069D6E90A13101A401843F1AB
:100930000001B2614FF47A420023C6E90A010CF0CB
:1009400019FF4FF47A72A9FB0264B0EB0A0061EB65
:100950000503012808FB02414FF001024FF0010599
:10096000CDE9360388BF0546002B14BF02462A4650
:1009700030460CF0FFFECDE90C0109A8389048F68E
:10098000E160C0F2000039900AA83A9048F6E5709C
:10099000C0F2000036A9CDE93C100CA93B90CDE98E
:1009A0003E104EF274414DF695520898C0F2000187
:1009B000C0F2000238AB07F0FBF94BF6482BC2F24D
:1009C000000B27E0DBF88065812E80F07180089CA9
:1009D00044F240000BF178020BF59073C2F2010073
:1009E0002146CDE9006B01F0A1F8ADF830000CA86C
:1009F00038904CF6F910C0F200004EF274414DF6FA
:100A00002C723990C0F20001C0F2000238AB2046CF
:100A100007F0CEF901208BF8F00500208BF8F305E4
:100A200065B0BDE8000FF0BD03208BF8F205032888
:100A3000F0D14EF280024CF2482342F21C5E4BF29F
:100A4000C0594FF00008C0F20002C2F201034FF09B
:100A5000010CC4F2000EC2F20009002608E000BF3B
:100A6000C3F80CC0CEF80050013662B6252ED1D0A6
:100A7000955D72B618695C69411C6FF39F21A142B4
:100A800006D162B600BF00BF00BF00BF72B6F1E77B
:100A9000DC68002CE4D0B8EB902F1DD109F8005091
:100AA0001961E1E74EF25440C0F2000007F0F8FF90
:100AB0004EF2A803C0F2000300203146802207F066
:100AC000F3FF00BF4EF60043C0F2000300201146C2
:100AD000642207F0E9FF00BF4EF2B472C0F20002D8
:100AE0004FF4806107F00CFEF0B503AF2DE9000F65
:100AF000ADF54B7D4BF6482BC2F2000BDBF884457D
:100B0000CCB1064601A860210CF0DDFD612C80F01F
:100B10008B8701AD0BF5A461284622460CF0DAFC68
:100B20000020CBF884054AA82946224607F0E1FFB9
:100B30004A98012804D10DF54B7DBDE8000FF0BDAA
:100B40009BF8F005DDF82C81DDF83091002843D0CA
:100B500000208BF8F005A9F10100012109288BF88C
:100B6000F315E8D8DFE810F00C00A402D001F2027F
:100B700020030A005802C602DE023A03DBE700BF88
:100B800098F800006428D6D14AAC20466421642538
:100B90000CF099FD204609F03DFE642838BF05465B
:100BA00020A821462A4607F0A4FF20AA07CA4DF62E
:100BB0006F334EF6487AC0F2000300244FF02E380F
:100BC0004FF020091DADC0F2000A00280CBF0B46F3
:100BD0000122CDE9193255E09BF8F305011F0229E6
:100BE000C0F01C81022800F02B810328A3D1B9F1A9
:100BF000000F00F0B084B9F1010F40F03F8398F886
:100C000000106FF0004C4FF0FF3E2B294FF0010613
:100C100000F0B6842D2900F0BE8431E31AF80000FC
:100C2000A0F16102D2B21A2A024638BF82F0200235
:100C3000082928BF02468DF88E20284620A90F22B9
:100C400007F057FF1DAA07CA2B4600281BA81CBF88
:100C5000012100221D9047F68110CDE91B12C0F240
:100C600000004EF274414DF62C421E903046C0F208
:100C70000001C0F2000207F09BF8083C14F14000AC
:100C800000F0D4830BEB040191F81021CDF88B8098
:100C90000F2ACDF88880CDF88480CDF8808013D0DD
:100CA00002F00700052800F2B2801AF80000A0F157
:100CB0006103DBB21A2B034638BF83F02003082AF6
:100CC00028BF03468DF8803091F811218DF881906E
:100CD0000F2A13D002F00700052800F298801AF8B6
:100CE0000000A0F16103DBB21A2B034638BF83F08A
:100CF0002003082A28BF03468DF8823091F812217C
:100D00008DF883900F2A12D002F0070005287ED8B4
:100D10001AF80000A0F16103DBB21A2B034638BFBA
:100D200083F02003082A28BF03468DF8843091F809
:100D300013218DF885900F2A12D002F007000528A4
:100D400065D81AF80000A0F16103DBB21A2B034644
:100D500038BF83F02003082A28BF03468DF8863069
:100D600091F814218DF887900F2A12D002F0070015
:100D700005284CD81AF80000A0F16103DBB21A2B49
:100D8000034638BF83F02003082A28BF03468DF8A6
:100D9000883091F815218DF889900F2A12D002F031
:100DA0000700052833D81AF80000A0F16103DBB270
:100DB0001A2B034638BF83F02003082A28BF0346B6
:100DC0008DF88A3091F816218DF88B900F2A12D069
:100DD00002F0070005281AD81AF80000A0F16103F4
:100DE000DBB21A2B034638BF83F02003082A28BF42
:100DF00003468DF88C3091F817118DF88D900F29DE
:100E00003FF41BAF01F0070005287FF607AF4EF255
:100E10007002C0F20002062107F072FCB9F1000F67
:100E20004FF000066ED0B9F1010F43D198F80010D1
:100E300000232B2967D02D2900F096833CE000BFCA
:100E40009BF8F205DFE810F0060042026802040099
:100E500071E600BFB9F1030F00F02285B9F1050F6B
:100E600000F01285B9F1080F40F058854DF6443175
:100E7000C0F20001404608220BF007FE002840F0B7
:100E80004D854EF6F0614AACC0F200012046382292
:100E900008F0EEF84A98C00700F02A8604F108012D
:100EA00020AC2046A8220CF0C0FB0BF178002146B4
:100EB00000F025BD98F800102B2904BFA9F1010905
:100EC00008F10108B9F1110F80F0AC814FF0000A70
:100ED000B9F1000F00F0F6820A23002298F8000012
:100EE000A0F1300109290DD802EB82004200EAFB93
:100EF0000312B9F1010908F101088A46EED1012374
:100F000032E300BF00232FE34DF61831C0F2000199
:100F1000404603220BF0B9FD00287FF40CAE42F2EC
:100F20001C5C4EF24C054CF248214BF2C05EC4F200
:100F3000000C4FF00009C0F20005C2F201014FF0B1
:100F40000108C2F2000E002208E000BFC1F80C80C8
:100F5000CCF80030013262B60E2A1DD0AB5C72B6FE
:100F600008694E69441C6FF39F24B44206D162B6EF
:100F700000BF00BF00BF00BF72B6F1E7CE68002E11
:100F8000E4D0B9EB902F40F0B9850EF800300C6139
:100F9000013262B60E2AE1D14EF25A054FF0000935
:100FA000C0F200054FF00108002207E0C1F80C80F4
:100FB000CCF80030013262B6142A1DD0AB5C72B698
:100FC00008694E69441C6FF39F24B44206D162B68F
:100FD00000BF00BF00BF00BF72B6F1E7CE68002EB1
:100FE000E4D0B9EB902F40F089850EF800300C6109
:100FF000013262B6142AE1D172B608694B69421C0B
:101000006FF39F229A4240F04F8262B600BF00BF4A
:1010100000BF00BF72B6F0E74DF62331C0F2000109
:10102000404607220BF031FD00287FF484AD42F2E8
:101030001C5C4DF634334CF248264BF2C059C4F2D6
:10104000000C4FF00008C0F20003C2F201064FF09E
:10105000010EC2F20009002109E000BFC6F80CE051
:10106000CCF80050013162B608293FF464AD5D5CF4
:1010700072B600BF30697469421C6FF39F22A242AE
:1010800006D162B600BF00BF00BF00BF72B6F1E775
:10109000F468002CE2D0B8EB902F40F02F8509F8CF
:1010A00000503261013162B60829E0D143E500BF4A
:1010B000B8F8000046F6677188427FF43CAD032023
:1010C000ABF8F3050020CBE90000CBE90400CBE945
:1010D0000800CBE90C00CBF84000CBF84800CBE986
:1010E0001400CBE916008BF860000DF54B7DBDE8D0
:1010F000000FF0BD4DF64C31C0F200014046082211
:101100000BF0C3FC00287FF416AD4FF40070ABF871
:10111000F2050020CBF8EC050DF54B7DBDE8000F86
:10112000F0BD00BF4DF66631C0F200014046092215
:101130000BF0ABFC00287FF4FEAC06208BF8F30527
:101140000DF54B7DBDE8000FF0BD00BFD8F80000E5
:1011500047F27151C7F26941884200F09181D8F895
:10116000000047F26561C6F6614188427FF4E3AC56
:101170000AF014FA209020A84A9048F6E160C0F2E4
:1011800000004EF274414DF679324B90C0F20001EE
:10119000C0F200024AAB304606F00AFE0DF54B7D68
:1011A000BDE8000FF0BD00BF4DF65C31C0F200019C
:1011B000404605220BF069FC002800F069814DF6DD
:1011C0006131C0F200014046052205240BF05DFCB0
:1011D00000287FF4B0AC8BF8F3455CE14DF62A3182
:1011E000C0F2000140460A220BF04FFC00287FF4B9
:1011F000A2AC44F24000C2F2010009F049F84AAC46
:10120000204609F0E9FA0BF178002146A8220CF0FB
:101210000CFA0020CBF880050DF54B7DBDE8000FE2
:10122000F0BD00BF00214FF00A0E3246B9F1000FA9
:101230008A4600F09781AAFB0E10A2FB0E3418F824
:1012400001CBC6184FF0000343F10005002CACF1B0
:10125000300018BF0124092800F2858154EA0503F3
:101260004FF0000340F07F81091856F1000653F15A
:101270000000A9F10109D8D075E100BF98F800106D
:101280002D2900F023812B294A46414604BF08F14D
:101290000101A9F10102102A80F03A81002A00F030
:1012A000718100264FF00A0C002308783038092895
:1012B00000F2518103EB83035B00E6FB0C03013A70
:1012C00001F101010646F0D15EE100BFB9F1050F61
:1012D0000AD14EF61341C0F20001404605220BF040
:1012E000D4FB002800F0F082DBF8EC0500EB0901EC
:1012F0006429BFF420AC002800F01883642880F033
:1013000005845844202180F88815DBF8EC0501306D
:10131000CBF8EC050BE300BFB9F1050F0CD14EF68D
:101320001341C0F20001404605224FF005090BF0C1
:10133000ACFB00283FF4FFAB4AAC20464FF40171F0
:101340000CF0C1F90BF178002146009008F0EAFE9C
:10135000CA99B1F5807F00F2AF83002900F0DE82E8
:101360004C0000254FF0000A05E000BF0AF1020A18
:10137000544500F0D3824AA830F80A608DF88450B2
:1013800020952EB306F0070061308DF88000C6F37B
:10139000C20031308DF88100C6F3821061308DF8C3
:1013A000820006F44040B0F5804FC6F3422000F1C1
:1013B00031008DF883000ED14DF61F31C6F3013098
:1013C000C0F20001085C8DF88400052004E000BF35
:1013D0004FF03030209004204845C7D120A8414626
:1013E0004A460BF052FB0028C0D1009D4AACDBE915
:1013F0002E9820462946A8220CF017F9204631469F
:1014000002F050DF9DF8CB01002800F01783DBF8D5
:101410008005802840F014830BF590700BF59471D3
:101420004FF47E720CF0A4F87F200BE319A82090F3
:1014300047F681104EF27444C0F20000C0F200047E
:101440004DF670322190C0F2000220AB30462146AA
:1014500006F0AEFC0BF1B800209048F62170C0F207
:1014600000004EF23D022190C0F2000220AB304657
:10147000214606F09DFC0DF54B7DBDE8000FF0BD4B
:1014800001208BF8F1050DF54B7DBDE8000FF0BD97
:1014900004208BF8F3050020CBE91A000DF54B7DF5
:1014A000BDE8000FF0BD00BFCB68002B00F030811D
:1014B0000023B3EB902F40F0218375230EF800300A
:1014C0000A612AE1012300224EE000BF08F1010178
:1014D000B9F1110FA9F1010280F0EC80002A51D07E
:1014E00000200A2600230D78A5F13004092C32D8FB
:1014F000A0FB060503EB830305EB4303013A001B46
:1015000063F10003002A01F10101ECD13CE000BFCE
:1015100000204FF00A0C0023B2B3A0FB0C060024FD
:10152000C3FB0C6411F8015BE31783EAE67384EAFA
:10153000E6742343A5F1300518BF0123092D0AD80D
:101540004BB9401946F1000386EA030535EA060661
:10155000A2F10102E0D56FF0004C4FF0FF3E0126F2
:1015600019E000BF012300260BF1680080E8480461
:10157000CBF874200DF54B7DBDE8000FF0BD00BF2A
:1015800009E000BF00200023002B48BF002023EA11
:10159000E37C002686469BF8F42500238BF8F4357F
:1015A00086F00101DFE802F00660404A326A7258B4
:1015B0007C0000BFA9F1040105294FF0000000F2F2
:1015C0006482DFE811F00700EB0162026202CD01E4
:1015D0001D0200BFD8F8000046F67711C6F26E3142
:1015E000884200F04982D8F8000046F66211C6F23F
:1015F0006E3188424FF0040018BF00208BF8F405CC
:101600000DF54B7DBDE8000FF0BD00BF002E1CBFE7
:101610004FF0000C4FF0000ECBE916EC0DF54B7DB2
:10162000BDE8000FF0BD00BF0022CBE90412CBE9FA
:10163000060C0DF54B7DBDE8000FF0BD002E1CBF64
:101640004FF0000C4FF0000ECBE914EC0DF54B7D84
:10165000BDE8000FF0BD00BFCBE912100DF54B7DCA
:10166000BDE8000FF0BD00BF0022CBE90012CBE9BE
:10167000020C0DF54B7DBDE8000FF0BDCBE910105D
:101680000DF54B7DBDE8000FF0BD00BF0022CBE99A
:101690000812CBE90A0C0DF54B7DBDE8000FF0BD3B
:1016A0000022CBE90C12CBE90E0C0DF54B7DBDE809
:1016B000000FF0BD00204FF00A0A00236FF0004C2D
:1016C0004FF0FF3E002A3FF45FAFA0FB0A06002464
:1016D000C3FB0A6411F8015BE31783EAE67384EA4B
:1016E000E6742343A5F1300518BF0123092D3FF609
:1016F00032AF002B7FF42FAF401B66F1000386EA68
:1017000003052E40A2F101024FF00106DAD542E7AF
:101710000120C8607520CCF8000062B672B6086976
:101720004B69421C6FF39F229A4207D162B600BFF9
:1017300000BF00BF00BF72B6F1E700BFCB684BB17E
:101740000023B3EB902F40F0D98163230EF80030D3
:101750000A6104E00120C8606320CCF8000062B692
:1017600072B608694B69421C6FF39F229A4207D1F7
:1017700062B600BF00BF00BF00BF72B6F1E700BF96
:10178000CB684BB10023B3EB902F40F0B7816923B6
:101790000EF800300A6104E00120C8606920CCF82E
:1017A000000062B672B608694B69421C6FF39F2253
:1017B0009A4207D162B600BF00BF00BF00BF72B639
:1017C000F1E700BFCB684BB10023B3EB902F40F0A3
:1017D00095816F230EF800300A6104E00120C86093
:1017E0006F20CCF8000062B672B608694B69421CE3
:1017F0006FF39F229A4207D162B600BF00BF00BFBD
:1018000000BF72B6F1E700BFCB684BB10023B3EB6A
:10181000902F40F073816B230EF800300A6104E0D2
:101820000120C8606B20CCF8000062B672B608696F
:101830004B69421C6FF39F229A4207D162B600BFE8
:1018400000BF00BF00BF72B6F1E700BFCB687BB13D
:101850000023B3EB902F40F051810A230EF80030A3
:101860000A6162B60DF54B7DBDE8000FF0BD00BF0B
:101870000120C8600A20CCF8000062B60DF54B7D4F
:10188000BDE8000FF0BD00BF4EF61341C0F20001ED
:10189000404605220BF0F9F800283FD135E000BFA3
:1018A0004EF61041C0F20001404603220BF0EDF865
:1018B000A0BB0020CBF8EC0501208BF8F2050DF55C
:1018C0004B7DBDE8000FF0BDDBF8EC25652A80F00C
:1018D00005810BF5B1614AA807F00BF94AAA07CABE
:1018E0004AAC002820461CBF0022012107F0C0FBA3
:1018F0004A98C00712D004F108010BF17800A82221
:101900000BF093FE0020CBF8800502208BF8F20547
:101910000DF54B7DBDE8000FF0BD00BF03208BF837
:10192000F2050DF54B7DBDE8000FF0BD002010EB7A
:10193000090180F0CB80652980F0C880584400F50B
:10194000B16041464A460BF042F9DBF8EC054844E9
:10195000CBF8EC050DF54B7DBDE8000FF0BD00BFE9
:101960004DF63C31C0F20001404608220BF08DF8E4
:10197000002879D04DF65431C0F2000140460822CB
:101980000BF083F810B901208BF8600000208BF871
:10199000F4050DF54B7DBDE8000FF0BD4EF6384166
:1019A000C0F20001404605220BF06FF800286BD012
:1019B0004EF63D41C0F20001404605220BF065F8AD
:1019C000002869D04EF64B41C0F200014046052286
:1019D0000BF05BF8002867D04EF65041C0F20001D2
:1019E000404605220BF051F800284FF0000008BFD8
:1019F00008208BF8F4050DF54B7DBDE8000FF0BD18
:101A00004EF64241C0F20001404609220BF03DF87B
:101A100000284FF0000008BF05208BF8F4050DF5F5
:101A20004B7DBDE8000FF0BD4EF2B803C0F20003DD
:101A300000202146602207F037F800BF002006E0B2
:101A40007F286BD80BEBC0010130C1E94898CBF877
:101A500080054AA92846A8220BF0E7FD0DF54B7D2D
:101A6000BDE8000FF0BD00BF06208BF8F4050DF5B2
:101A70004B7DBDE8000FF0BD03208BF8F4050DF59C
:101A80004B7DBDE8000FF0BD01208BF8F4050DF58E
:101A90004B7DBDE8000FF0BD02208BF8F4050DF57D
:101AA0004B7DBDE8000FF0BD07208BF8F4050DF568
:101AB0004B7DBDE8000FF0BD4EF6D843C0F20003E9
:101AC00000204FF4807206F0EFFF00BF4EF628436F
:101AD000C0F20003642206F0E7FF00BF4EF60043A9
:101AE000C0F2000300201146642206F0DDFF00BFB3
:101AF0004EF62870C0F2000006F0D2FF4EF2B4722B
:101B0000C0F200024FF4806106F0FAFD4EF6184272
:101B1000C0F20002642106F0F3FD00BF4EF6F03281
:101B2000C0F20002802106F0EBFDD4D4F0B503AF83
:101B30002DE9000FADF5237DD7F8089048F2301855
:101B400000F5805493460E91064600EB08054FEAD7
:101B5000C902204619464FF0FF3A0BF066FDDBE95B
:101B6000100104EBC90244F839005160002048F22A
:101B7000EC117218705095F83010C2E9010008316C
:101B800085F8301006F5FC41C2E90300C2F81300E5
:101B90004FF4FC424860C1F8070047F60C61B050B2
:101BA0007218705047F618615060C2F8070072183A
:101BB000705047F62461C2F80700506072187050E8
:101BC00047F63061C2F8070050607218705047F64F
:101BD0003C615060C2F807007218705047F64861C7
:101BE0005060C2F807007218705047F65461506098
:101BF000C2F807007218705047F660615060C2F872
:101C000007007218705047F66C615060C2F8070008
:101C10007218705047F67861C2F807005060721869
:101C2000705047F68461C2F8070050607218705017
:101C300047F69061C2F8070050607218705047F67E
:101C40009C61C2F8070050607218705047F6A86196
:101C5000C2F8070050607218705047F6B4615060C7
:101C6000C2F807007218705047F6C061C2F807004A
:101C700050607218705047F6CC61C2F8070050608F
:101C80007218705047F6D861C2F807005060721899
:101C9000705047F6E461C2F8070050607218705047
:101CA00047F6F061C2F8070050607218705047F6AE
:101CB000FC61C2F8070050607218705047F6087156
:101CC000C2F8070050607218705047F61471C2F8DD
:101CD000070050607218705047F62071C2F8070074
:101CE00050607218705047F62C71C2F807005060AF
:101CF0007218705047F63871C2F8070050607218B9
:101D0000705047F64471C2F8070050607218705066
:101D100047F65071C2F8070050607218705047F6CD
:101D20005C71C2F8070050607218705047F6687115
:101D3000C2F8070050607218705047F67471C2F80C
:101D4000070050607218705006F5FF41C2F8070096
:101D500050604FF4FF42C1F80700486047F68C71AD
:101D6000B0507218705047F69871C2F80700506072
:101D70007218705047F6A471C2F8070050607218CC
:101D8000705047F6B071C2F807005060721870507A
:101D900047F6BC71C2F8070050607218705047F6E1
:101DA000C871C2F8070050607218705047F6D471BD
:101DB000C2F8070050607218705047F6E071C2F820
:101DC000070050607218705047F6EC71C2F80700B7
:101DD00050607218705047F6F871C2F807005060F2
:101DE0007218705048F20401C2F80700506072186F
:101DF000705048F21001C2F807005060721870501D
:101E000048F21C01C2F8070050607218705048F286
:101E10002801C2F8070050607218705048F234016F
:101E2000C2F8070050607218705048F24001C2F8C2
:101E3000070050607218705048F24C01C2F8070059
:101E400050607218705048F25801C2F80700506094
:101E50007218705048F26401C2F80700506072189E
:101E6000705048F27001C2F807005060721870504C
:101E700048F27C01C2F8070050607218705048F2B6
:101E80008801C2F8070050607218705048F294013F
:101E9000C2F8070050607218705048F2A001C2F8F2
:101EA000070050607218705048F2AC01C2F8070089
:101EB00050607218705048F2B801C2F807005060C4
:101EC0007218705048F2C401C2F8070050607218CE
:101ED000705048F2D001C2F807005060721870507C
:101EE00048F2DC01C2F8070050607218705048F2E6
:101EF000E801C2F8070050607218705048F2F4010F
:101F0000C2F8070050607218705006F50141C2F81F
:101F1000070050604FF40142C1F80700486048F2E2
:101F20000C11B0507218705048F21811C2F8070026
:101F300050607218705048F22411C2F807005060C7
:101F40007218C5F8B8902C4646F8080068607050C2
:101F5000C2F80700506041F204004CF248250F9689
:101F6000CEF20000C2F201050268A869D5E90A13A1
:101F7000101A4018FE6843F10001AA614FF47A423A
:101F80000023C5E90A010BF0F5FBC4E90201306B3F
:101F9000D6E90E21C00708BF5246D6E9120508BF90
:101FA0005146012DD8BF01253C2D4FF03C03A8BF61
:101FB0001D46002808BF1D46CDF840B09BF8A00084
:101FC00096F860B0234643F810AFBBF1000F0693BC
:101FD000C4E905AA2262C4F81CA061620C940A95A7
:101FE00040F08A80316AC90704D0D6E90A01034665
:101FF0000A467CE0022880F04F8401017158C9072D
:102000007AD0D6E910131E22002908BF13461E2BD2
:1020100038BF1A46002B08BF0122002A00F0448472
:1020200006EB0011D1E9021306EBC000B1F1280460
:10203000D0E9148573F100094FF0000040F1000071
:1020400090F0010F4FF001001CBF4FF00009002479
:10205000012C88BF20464FF0010AB9F1000F04BFE0
:10206000544604462046494600230BF083FB4FF0BC
:10207000030CA8FB0C3805EB450242449B0843EADD
:102080008273C01841EB92015FEA59024FEA3403B0
:10209000A4FB0CCE1C1A72EB01043CBF184611467F
:1020A00009EB49030EEB03044FEA9C038A0043EA61
:1020B000847342EA90724FEA940CB3EB80057CEB98
:1020C00002054FF0010534BFA2088300012B88BF31
:1020D0001D46002A04BF53462B460125012888BF10
:1020E0000546002904BF504628460C9C0A9D04F171
:1020F000100C8CE80B00E26111AC20464FF401712A
:102100000BF0E1FA1098214608F00CF891984FF086
:10211000000E002800F0B2830F9A48F2F010BDF8CC
:1021200044100C9C10440490A4F8D010D6E9080187
:1021300002F5006208430D9218BF012040EA0B002F
:102140000590012000260B9000204FF0000C4FF06E
:1021500000080990DDF82C90F00740F01E83A94597
:1021600000F21B834FF000024FF0000028BF012255
:1021700038BF0120B9F1040FA246CDF81C8011D957
:10218000ACF1190515F5FA4F6FF4FA410CF1190B82
:10219000B8BF0D46BBF5FA4F47F60151C8BF8B4695
:1021A00004E000BF47F6015B6FF4FA4548444FF086
:1021B000190808920B9019E00BEB050000EBD070AA
:1021C000ACEB08054FEA600B15F5FA4F6FF4FA40D7
:1021D000B8BF0546B64608EBD87008EB6008B8F5FE
:1021E0007A7FC4BF47F6015B6FF4FA45DDE90E1054
:1021F000109A4B46CDE900E5CDF808B07646CDF80B
:102200000CE0FEF3B1F09AF8D2105446002940F0E9
:10221000BB828446A842CFDDDC4511DB0CEB080B0A
:10222000606BBBF5FA4F47F60151C8BF8B460028DB
:10223000B646D0D00D980088A4F8D000CBE700BFF8
:10224000606BC4F8CC9018B10D980088A4F8D00049
:1022500094F8D3000A9D0028B646C4F8C8C040F0E0
:10226000928141F204004CF2482BCDE9949CCEF2CD
:102270000000C2F2010B0268DBF81800DBE90A1368
:10228000101A401843F10001CBF818204FF47A429D
:102290000023CBE90A017646E2460BF06BFA22688E
:1022A0004FF47A7EA2FB0EC5D4E902234FF47A786C
:1022B000821A606871EB030346F1000191F0010F8F
:1022C00000FB0E514FF001001CBF00230022CDE99E
:1022D0009623012A88BF1046002B4FF0010604BF49
:1022E0003246024660460BF045FACDE9980194A8C3
:1022F0009B900498DDF838909D9048F209704EF25A
:10230000744648F6E164C0F20000C0F200064DF6E3
:10231000C8529BADC0F200049E9048463146C0F2C0
:1023200000022B469C9405F043FD47F6BF40514602
:10233000824511DD47F60150401A00EBD070401085
:102340009A909AA84DF65842CDE99B0448463146EA
:10235000C0F200021FE000BF48F24130CFF6FF702C
:1023600081420FDA01F5FA4000EBD07040109A90EC
:102370009AA84DF63A72CDE99B0448463146C0F220
:10238000000208E095A84DF61972CDE99B04484675
:102390003146C0F200022B4605F00AFD0C9CE16AB2
:1023A000B1F5A77F084628BF4FF4A77000296BD06E
:1023B000411EA36A94F8302021F07841032901F1ED
:1023C000010C80F0358100211CF0030557D01C7AE8
:1023D0002CB15C7A04F0F804944208BF01319C7C73
:1023E0002CB1DC7C04F0F804944208BF01311C7F5E
:1023F0002CB15C7F04F0F804944208BF0131012D38
:102400003DD093F8284034B193F8294004F0F80403
:10241000944208BF013193F8324034B193F833400D
:1024200004F0F804944208BF013193F83C4034B101
:1024300093F83D4004F0F804944208BF0131022DA6
:102440001DD093F8485035B193F8495005F0F80580
:10245000954208BF013193F8525035B193F853506B
:1024600005F0F805954208BF013193F85C5035B18D
:1024700093F85D3003F0F803934208BF01310C9CE0
:1024800001FB08F19BAD00E0002100EB40000128BA
:102490004FF0010298BF1046B1FBF0F096A9CDE9CC
:1024A0009A0448F6E570C0F20000CDE99D1098A9A5
:1024B0009C90CDE99F109AA8A19048F61360C0F2B5
:1024C00000004EF21502A29048463146C0F20002CA
:1024D0002B4605F06DFCD4F83480B8F1000F18D00D
:1024E0000D9C0025202D80F0CF814CF6F910C0F214
:1024F00000004DF691529C9048463146C0F20002D1
:102500009BAB9B9405F054FC0135454504F1020456
:10251000E8D372B6DBF81000DBF81420411C6FF32F
:102520009F210A9D91424FF0000ED4460FD100BF6B
:1025300062B600BF00BF00BF00BF72B6DBF810007C
:10254000DBF81420411C6FF39F219142F0D0DBF89F
:102550000C206AB1BEEB902F40F0A8814BF2C05323
:102560000A22C2F200031A54CBF8101009E000BF8F
:102570000120CBF80C0042F21C50C4F200000A21EA
:1025800001600C9C62B60798B4F8D08080B2804598
:102590004FF0000B099808BF00F1010B0598089E49
:1025A0000028CDF824B040F0E58006984FF0FF31C8
:1025B000D0E9009A8AEA010081EA0901084300F0A3
:1025C000D98041F204004CF24825CDF81CC0CEF26F
:1025D0000000C2F201050268A869D5E90A13101AC1
:1025E000401843F10001AA614FF47A42002300260B
:1025F000C5E90A0100250BF0BDF8D4E90223821ACF
:1026000071EB030C45F1000191F0010F1CBF4FF07D
:10261000000C0022BBF1030F00F296800998DFE85E
:102620000BF0038F858900BF002496218EE000BF48
:102630002CF00305002104E0043D03F180033FF486
:10264000C3AE1C7A2CB15C7A04F0F804944208BF43
:1026500001319C7C2CB1DC7C04F0F804944208BF6E
:1026600001311C7F2CB15C7F04F0F804944208BF58
:10267000013193F8284034B193F8294004F0F8046C
:10268000944208BF013193F8324034B193F833409B
:1026900004F0F804944208BF013193F83C4034B18F
:1026A00093F83D4004F0F804944208BF013193F8D8
:1026B000484034B193F8494004F0F804944208BF0C
:1026C000013193F8524034B193F8534004F0F804C8
:1026D000944208BF013193F85C4034B193F85D40F7
:1026E00004F0F804944208BF013193F8684034B113
:1026F00093F8694004F0F804944208BF013193F85C
:10270000724034B193F8734004F0F804944208BF67
:10271000013193F87C40002C3FF48EAF93F87D405C
:1027200004F0F804944208BF013185E700246421D5
:102730000CE000BF00245A214FF0000E07E000BF5C
:102740000024782102E000BF2C464B21B646A1FBB5
:102750000960642501FB0A00A2FB05230CFB05317F
:1027600004FB0900921B0C9C0A9DDDE907C671EB76
:10277000000012D2D4E90001D4E90823801A71EBD9
:102780000300FFF4E7AC08E0B9F1020F05D3606B7A
:1027900018B10D980088A4F8D00094F8D300002850
:1027A0006AD141F204004CF24826CEF20000C2F297
:1027B00001060268B069D6E90A13101A401843F1FD
:1027C0000001B2614FF47A420023C6E90A014FF0DA
:1027D00000080AF0CFFF22684FF47A7CA2FB0C6459
:1027E0000C9A0C9B9268DB68821A71EB030348F128
:1027F000000090F0010F18BF00230C984FF0010566
:10280000D0F8CC0018BF00220128D8BF28469690E7
:102810000C98CDE992234068012A00FB0C414FF04F
:1028200001000C9C88BF1046002B04BF2A460246BC
:1028300030460AF09FFFCDE9980196A89B9048F694
:10284000E160C0F2000048F6E571CDE99C04C0F2F9
:10285000000192A8CDE99F0198A89E91CDE9A10120
:102860004EF274414DF686620E98C0F20001C0F23D
:1028700000029BAB05F09CFAB4F8D0E070460DF571
:10288000237DBDE8000FF0BD4EF2C802C0F2000289
:102890002846202105F034FF4EF66842C0F20002BF
:1028A000022105F02DFF00BF06F01FF94EF2B472B1
:1028B000C0F200024FF4806105F022FF80B56F4640
:1028C000FDF7FEFD80B56F46ADF50A7D40F20010C4
:1028D00048F28146C4F20000C0F21E0600214FF00B
:1028E0008042012301601360721E00BF03684BB970
:1028F000914207D203682BB903681BB903680431FE
:10290000002BF3D04EF24050C4F201004FF001080A
:10291000C0F800804EF6FC50CEF20000016841F293
:102920000402CEF2000241F08071002501601560C2
:1029300052F8040C40F20C5340F00100C5F20003C1
:1029400042F8040C4FF400101860D8604FF4800077
:102950001860D8604FF400401860D8604FF0807065
:102960001860D8604FF400201860D8604FF0805095
:1029700043F8040CD8604FF4006043F8040CD860AE
:102980004FF0004043F8040CD8602020C3F8FC024C
:10299000C3F80C034FF0804042F20C5443F8040C8F
:1029A000D8604020C4F2000443F8040CD86006202C
:1029B000C3F8145520602820A0604EF2000042F2B7
:1029C0000816C0F2D710C4F20006A06104206FF010
:1029D000FF012566C6F8F8033560756146F8018089
:1029E0004FF6F861CFF6FF7146F801808421C6F8F2
:1029F000FC114EF20011CEF2000108604CF278207A
:102A0000C2F201004CF2482144F2400B00F5006094
:102A1000C2F20101C2F2010B08620BF11C0048F284
:102A2000EC110AF050FE4CF24004C2F200042046C1
:102A30004FF400410AF0A2FD48F258104BF8004054
:102A400048F25C104FF480614BF800100BF5C05059
:102A50004FF490410AF092FD0BF5D8404FF490519D
:102A60000AF08CFD4FF0FF304EF6F0615EACCBF813
:102A70009006CBE90400CBE90C00CBE91400CBE9CC
:102A80001C00CBE92400CBE92C00CBE93400CBE9D6
:102A90003C00CBE94400CBE94C00CBE95400CBE946
:102AA0005C00CBE96400CBE96C00CBE97400CBE9B6
:102AB0007C00CBE98400CBE98C00CBE99400CBE926
:102AC0009C00CBE9A400CBE9AC00CBE9B400CBE996
:102AD000BC00CBE9C400CBE9CC00CBE9D400CBE906
:102AE000DC00CBE9E400CBE9EC00CBE9F400CBE976
:102AF000FC00CBF81004CBF81404CBF83004CBF86E
:102B00003404CBF85004CBF85404CBF87004CBF861
:102B10007404CBF89004CBF89404CBF8B004CBF851
:102B2000B404CBF8D004CBF8D404CBF8F004CBF841
:102B3000F404CBF81005CBF81405CBF83005CBF82E
:102B40003405CBF85005CBF85405CBF87005CBF81D
:102B50007405CBF89005CBF89405CBF8B005CBF80D
:102B6000B405CBF8D005CBF8D405CBF8F005CBF8FD
:102B7000F405CBF81006CBF81406CBF83006CBF8EA
:102B80003406CBF85006CBF85406CBF87006CBF8D9
:102B90007406CBF89406CBF8B006CBF8B406CBF8A5
:102BA000D006CBF8D406CBF8F006CBF8F406CBF879
:102BB0001007CBF81407CBF83007CBF83407CBF865
:102BC0005007CBF85407CBF87007CBF87407CBF855
:102BD0009007CBF89407CBF8B007CBF8B407CBF845
:102BE000D007CBF8D407CBF8F007CBF8F407C0F246
:102BF000000120463822CBE90055CBE90255CBF83D
:102C00001850CBE90855CBE90A55CBE91055CBE96B
:102C10001255CBE91855CBE91A55CBE92055CBE92C
:102C20002255CBE92855CBE92A55CBE93055CBE9DC
:102C30003255CBE93855CBE93A55CBE94055CBE98C
:102C40004255CBE94855CBE94A55CBE95055CBE93C
:102C50005255CBE95855CBE95A55CBE96055CBE9EC
:102C60006255CBE96855CBE96A55CBE97055CBE99C
:102C70007255CBE97855CBE97A55CBE98055CBE94C
:102C80008255CBE98855CBE98A55CBE99055CBE9FC
:102C90009255CBE99855CBE99A55CBE9A055CBE9AC
:102CA000A255CBE9A855CBE9AA55CBE9B055CBE95C
:102CB000B255CBE9B855CBE9BA55CBE9C055CBE90C
:102CC000C255CBE9C855CBE9CA55CBE9D055CBE9BC
:102CD000D255CBE9D855CBE9DA55CBF87853CBE9C7
:102CE000E055CBE9E255CBF89853CBE9E855CBE971
:102CF000EA55CBF8B853CBE9F055CBE9F255CBF810
:102D0000D853CBE9F855CBE9FA55CBF8F853CBF8C3
:102D10000054CBF80454CBF80854CBF80C54CBF83F
:102D20001854CBF82054CBF82454CBF82854CBF8C3
:102D30002C54CBF83854CBF84054CBF84454CBF84F
:102D40004854CBF84C54CBF85854CBF86054CBF8DB
:102D50006454CBF86854CBF86C54CBF87854CBF867
:102D60008054CBF88454CBF88854CBF88C54CBF8EF
:102D70009854CBF8A054CBF8A454CBF8A854CBF873
:102D8000AC54CBF8B854CBF8C054CBF8C454CBF8FF
:102D9000C854CBF8CC54CBF8D854CBF8E054CBF88B
:102DA000E454CBF8E854CBF8EC54CBF8F854CBF817
:102DB0000055CBF80455CBF80855CBF80C55CBF89B
:102DC0001855CBF82055CBF82455CBF82855CBF81F
:102DD0002C55CBF83855CBF84055CBF84455CBF8AB
:102DE0004855CBF84C55CBF85855CBF86055CBF837
:102DF0006455CBF86855CBF86C55CBF87855CBF8C3
:102E00008055CBF88455CBF88855CBF88C55CBF84A
:102E10009855CBF8A055CBF8A455CBF8A855CBF8CE
:102E2000AC55CBF8B855CBF8C055CBF8C455CBF85A
:102E3000C855CBF8CC55CBF8D855CBF8E055CBF8E6
:102E4000E455CBF8E855CBF8EC55CBF8F855CBF872
:102E50000056CBF80456CBF80856CBF80C56CBF8F6
:102E60001856CBF82056CBF82456CBF82856CBF87A
:102E70002C56CBF83856CBF84056CBF84456CBF806
:102E80004856CBF84C56CBF85856CBF86056CBF892
:102E90006456CBF86856CBF86C56CBF87856CBF81E
:102EA0008056CBF88456CBF88856CBF88C56CBF8A6
:102EB0009856CBF8A056CBF8A456CBF8A856CBF82A
:102EC000AC56CBF8B856CBF8C056CBF8C456CBF8B6
:102ED000C856CBF8CC56CBF8D856CBF8E056CBF842
:102EE000E456CBF8E856CBF8EC56CBF8F856CBF8CE
:102EF0000057CBF80457CBF80857CBF80C57CBF852
:102F00001857CBF82057CBF82457CBF82857CBF8D5
:102F10002C57CBF83857CBF84057CBF84457CBF861
:102F20004857CBF84C57CBF85857CBF86057CBF8ED
:102F30006457CBF86857CBF86C57CBF87857CBF879
:102F40008057CBF88457CBF88857CBF88C57CBF801
:102F50009857CBF8A057CBF8A457CBF8A857CBF885
:102F6000AC57CBF8B857CBF8C057CBF8C457CBF811
:102F7000C857CBF8CC57CBF8D857CBF8E057CBF89D
:102F8000E457CBF8E857CBF8EC57CBF8F85706F0F6
:102F90006FF85E98C00701F0A9850DF1280904F1CA
:102FA000080109F10800A8220AF03FFB4BF6482A65
:102FB000C2F2000ACDE95F55CDE961558DF88C511B
:102FC000CAE90055CAE90455CAE90855CAE90C55C9
:102FD000CAF84050CAF8485021465DC90AF14C0C65
:102FE000ACE85D00087849468CF800000AF17000F2
:102FF000C14642F20C58B022CAE91A55C4F2000880
:103000000AF013FB0AF590704FF49A610AF0B6FAD1
:103010000AA827218AF8F095CAF8F155CDE9375565
:10302000CDE93955CDE93B55CDE93D550AF04BFB8E
:103030004EF28C4E4BF2C05C4CF24821C0F2000EB6
:10304000C2F2000C01230022C2F2010109E000BF1C
:10305000C1F80C90C8F8104062B61D2A02F10103B5
:1030600026D01EF8024072B608694A69461C6FF302
:103070009F2696421A460CD162B600BF00BF00BF21
:1030800000BF72B608694B69461C6FF39F269E42CB
:10309000F2D0CB68002BDBD0B5EB902F41F02C8524
:1030A0000CF800400E6162B61D2A02F10103D8D16E
:1030B00040F20C554FF40010C5F2000528604FF4A3
:1030C000800028604FF400404FF080712860296034
:1030D0004FF4002129604FF0805145F8041C4FF453
:1030E000006145F8041C4FF0004120224FF080435E
:1030F00043F2C44445F8041CC5F8FC2245F8043CDE
:1031000045F8040C40F20C60C4F200042960C5F8D4
:103110005C02C5F8F40400201A21E06361644FF0FA
:10312000C861A264216606214BF6C019E163C2F2B0
:103130000009AF2143F2041689F8000089F8011054
:103140003C21C4F20006C4F8C4100221C4F88090E7
:10315000C4F8841030603062F0654FF40070C6F837
:10316000FC00012046F8FC0C48F28140C0F21E0031
:10317000316839B9316A002940F074810138F7D1DA
:1031800001F01BBB4FF0000843F2C440C6F8FC80BE
:10319000C4F200000068002841F00F834EF2DC40CA
:1031A000C0F200005E904EF2DD400125C0F200004A
:1031B000CDE960054EF2DE40C0F200004EF2E04183
:1031C00062900220C0F20001CDE964104DF64B710F
:1031D000C0F20001CDE966104EF2E241C0F20001FA
:1031E000CDE968154EF2E341C0F20001CDE96A1065
:1031F0004DF63A41C0F20001CDE96C104EF2E541C6
:10320000C0F200014EF2E8426E910321C0F20002CA
:103210006F91CDE970214EF2EB41C0F20001CDE992
:1032200072154EF2EC41C0F20001CDE974154EF278
:10323000ED41C0F20001CDE976104EF2EF41C0F24F
:103240000001CDE978104EF2F141C0F20001CDE964
:103250007A104EF2F341C0F20001CDE97C104EF23B
:10326000F541C0F20001CDE97E154DF63C41C0F2BA
:1032700000016390CDE980104EF2F640C0F20000EC
:10328000CDE982054FF0080A00205F9509E000BFF4
:1032900043F2C441C6F8FC80C4F2000109680AF197
:1032A000100A5EA9084445688DF8FE80042D05F1DA
:1032B0000104ADF8FC8081F00F8401683FA82A4624
:1032C00009F085FC494689F8008065B19DF8FC004D
:1032D000022C487007D09DF8FD00032C88701CBF9D
:1032E0009DF8FE00C87043F2C440C4F200003C22C6
:1032F000C0F8C420C0F88010C0F884404FF40070BB
:10330000C6F80080C6F82080C6F85C80C6F8FC00CD
:10331000012046F8FC0C48F2814048F2A062C0F25D
:103320001E00C0F2010200BF316829B9316A79B9C3
:103330000138F9D107E000BF43F2C440C6F8FC8071
:10334000C4F200000068BAF1980F1DD1A8E000BFD8
:10335000012046F8F00C0020316849B9904207D2AC
:10336000316829B9316819B9316804300029F3D0BE
:1033700043F2C440C4F200000F210160C6F820806F
:10338000BAF1980F00F08C805EA8504445688DF823
:10339000FE80032D05F10104ADF8FC8001F29C8351
:1033A00001683FA82A4609F012FC89F800807DB127
:1033B0009DF8FC00022C89F8010009D09DF8FD0061
:1033C000032C89F802001CBF9DF8FE0089F8030059
:1033D00043F2C441C4F200013C22C1F8C420C1F848
:1033E0008090C1F884404FF40071C6F80080C6F8A0
:1033F0002080C6F85C80C6F8FC10012146F8FC1C51
:1034000048F2814148F2A0650AF10800C0F21E01AD
:10341000C0F201053268002A7FF43AAF326A2AB955
:103420000139F7D10AF1100A3BE700BF012146F844
:10343000F01C002132684AB9A94207D232682AB981
:1034400032681AB932680431002AF3D043F2C44119
:10345000C4F200010F220A60C6F820800AF1100AA7
:103460001FE700BF48F2A0600121C0F2010046F84A
:10347000F01C002132684AB9814207D232682AB969
:1034800032681AB932680431002AF3D043F2C441D9
:103490000F20C4F2000108600020306201F08DB9F5
:1034A00001200121012200230126002401F034FB28
:1034B000012002210122002301F02EFB0120032123
:1034C0000122002301F028FB012004210122002316
:1034D000042501F021FB012005210122002301F038
:1034E0001BFB012006210122002301F015FB012016
:1034F0000721012200234FF0070A01F00DFB0120F4
:103500000821012200234FF0080901F005FB2020CB
:103510008DF8B4014BF64820C2F200006F900AA863
:10352000709043F69820629041F28830649046F69D
:103530006E70C6F26E50679047F62010C7F2654075
:1035400040F20C53B4464FF02036CDF8B8B1689035
:10355000C5F200030C204FF0000BCDE96B66CDE9FE
:103560006966ADF8D0C1639465947194CDF8989173
:103570005E94CDE972A560941D60DD60C3F82402FD
:10358000C3F83802C3F8F801C3F82802C3F8FC52A4
:10359000C3F80C53C3F82C42C3F8504252A84EF261
:1035A000545E4EF261514EF26E52CDF81CB04EF2A6
:1035B000775B00F10408C0F2000E0D20C0F200019C
:1035C000C0F2000209250DF5B4794FF0010AC0F2EE
:1035D000000BCDE940E0CDE94210CDE94425586823
:1035E00059685A685B6800F4805001F4003102F0B9
:1035F000020203F400038CEA10308CEA51418CEA99
:1036000052028CEAD3538DF830018DF831118DF8C8
:1036100032218DF833315046012101220023CDE9BA
:103620004644CDE94844CDE94A44744601F074FA71
:10363000504602210122002301F06EFA5046032178
:103640000122002301F068FA5046042101220023E0
:1036500001F062FA504605210122002301F05CFAD4
:10366000504606210122002301F056FA5046072158
:103670000122002301F050FA5046082101220023C4
:1036800001F04AFA079D0220022D38BF2846CDE9F5
:10369000080A504601215A460B2301F03DFA20202A
:1036A00088F81800C8E90066C8E90266C8F8106022
:1036B000C8F81460002D08BF3E208DF84C01022090
:1036C00021468246529048460D2205F012FADDE965
:1036D0005A10002918BF012040F03F815C99002951
:1036E00000F03B814A1E032A01F0030E06D2BEF110
:1036F000000F00F03181421C022315E10A1F012155
:1037000001EB92010C2A01F0030C13D2BCF1000F63
:1037100000F00381017802228DF84E11B0F80110FB
:10372000ADF84F110521C37808F80130111D0B4683
:10373000AFE000BF21F003030221022206E000BF38
:103740000A46043B00F1100000F08080182AF8D8E7
:103750000178182A08F8021002F10101F0D044782B
:10376000162A08F8014002F10201E9D88478162AE5
:1037700008F8014002F10301E2D0C47808F80140E2
:10378000111D1829DCD80279182908F8012001F147
:1037900001020DD04479162908F8024001F1020215
:1037A00006D88479162908F8024001F1030201D1F4
:1037B0001146C6E7C4790431182908F80240BFD879
:1037C000027A182908F8012001F10102F0D0447AA8
:1037D000162908F8024001F10202E9D8847A162974
:1037E00008F8024001F10302E2D0C47A043118293A
:1037F00008F80240A4D8027B4FF0020A08F8012022
:10380000182901F1010203D111460DF5B47998E7A9
:10381000447B162908F8024001F10202CDF8188015
:1038200006D8847B069E1629B45401F1030205D103
:10383000DDF8188011460DF5B47982E7C47BDDF818
:103840001880043108F802400A46DEE7BCF1000F98
:103850001CD0182A1CD80178182A08F8021002F186
:1038600001013FF464AF4378162A08F8013002F1F1
:1038700002013FF65CAF8378162A08F8013002F1A6
:1038800003010B467FF44FAF03E000BF134644E053
:103890001346BCF1010F01D104303EE0182B19D8BA
:1038A0000179182B08F8031003F1010111D04279B6
:1038B000162B08F8012003F102010AD88279162B91
:1038C00008F8012003F1030103D0C27908F80120B0
:1038D000191D0B46BCF1020F02D108301DE000BFDC
:1038E000182B19D8017A182B08F8031003F10101DD
:1038F00011D0427A162B08F8012003F102010AD8F0
:10390000827A162B08F8012003F1030103D0C27A52
:1039100008F80120191D0B460C30BEF1000F1BD01A
:10392000182B00F1010204D8017808F80310591C83
:103930000B46BEF1010F0FD0182B0DD81178BEF138
:10394000020F08F8031003F1010118BF182B03D070
:10395000807808F80100991C529109980321424689
:10396000192301F0D9F8079D20204FF0203688F860
:103970001800C8E90066C8E90266C8E90466012DB6
:1039800008BF3E204EF261518DF84C014846C0F20E
:1039900000010D22CDF848A105F0ABF8DDE95A1081
:1039A000002918BF012040F046815C99002900F0F1
:1039B00042814A1E032A01F0030E07D2BEF1000F16
:1039C00000F03881421C02231CE100BF0A1F0121C4
:1039D00001EB92010C2A01F0030C13D2BCF1000F91
:1039E00000F00981017802228DF84E11B0F8011023
:1039F000ADF84F110521C37808F80130111D0B46B1
:103A0000B5E000BF21F003030221022206E000BF5F
:103A10000A46043B00F1100000F08680182AF8D80E
:103A20000178182A08F8021002F10101F0D0447858
:103A3000162A08F8014002F10201E9D88478162A12
:103A400008F8014002F10301E2D0C47808F801400F
:103A5000111D1829DCD80279182908F8012001F174
:103A600001020DD04479162908F8024001F1020242
:103A700006D88479162908F8024001F1030201D121
:103A80001146C6E7C4790431182908F80240BFD8A6
:103A9000027A182908F8012001F10102F0D0447AD5
:103AA000162908F8024001F10202E9D8847A1629A1
:103AB00008F8024001F10302E2D0C47A0431182967
:103AC00008F80240A4D8027B4FF020394FF0020AD8
:103AD00008F80120182901F1010205D11146079DBE
:103AE0004E460DF5B47994E7447B162908F8024058
:103AF00001F10202CDF8188006D8847B069D1629B4
:103B0000AC5401F1030207D1DDE9068511464E46AA
:103B10000DF5B4797DE700BFC47BDDF81880043172
:103B200008F802400A46DAE7BCF1000F1CD0182A58
:103B30001CD80178182A08F8021002F101013FF49C
:103B40005EAF4378162A08F8013002F102013FF611
:103B500056AF8378162A08F8013002F103010B46AC
:103B60007FF449AF03E000BF134644E01346BCF1C5
:103B7000010F01D104303EE0182B19D80179182B20
:103B800008F8031003F1010111D04279162B08F84F
:103B9000012003F102010AD88279162B08F80120CE
:103BA00003F1030103D0C27908F80120191D0B4667
:103BB000BCF1020F02D108301DE000BF182B19D84C
:103BC000017A182B08F8031003F1010111D0427A91
:103BD000162B08F8012003F102010AD8827A162B6D
:103BE00008F8012003F1030103D0C27A08F801208C
:103BF000191D0B460C30BEF1000F1BD0182B00F125
:103C0000010204D8017808F80310591C0B46BEF1D4
:103C1000010F0FD0182B0DD81178BEF1020F08F844
:103C2000031003F1010118BF182B03D0807808F8A6
:103C30000100991C5291DDF824B0042158464246F7
:103C4000192300F069FF202088F81800C8E90066F1
:103C5000C8E90266C8E90466012D88BF3E204EF21D
:103C60006E518DF84C014846C0F200010922CDF892
:103C700048A104F03EFFDDE95A10002918BF0120D9
:103C800040F03F815C9A002A00F03B81511E0329DD
:103C900002F0030106D2002900F03281421C022505
:103CA00018E100BF131F012202EB93020C2B02F05C
:103CB000030C13D2BCF1000F00F00781027805233A
:103CC0008DF84E21B0F80120ADF84F210222C578C1
:103CD00008F80350131D1D46B3E000BF22F0030592
:103CE0000223022206E000BF1A46043D00F1100044
:103CF00000F08480182AF8D80378182A08F80230CF
:103D000002F10103F0D04478162A08F8034002F1CA
:103D10000203E9D88478162A08F8034002F1030365
:103D2000E2D0C47808F80340131D182BDCD80279C0
:103D3000182B08F8032003F101020DD04479162B4B
:103D400008F8024003F1020206D88479162B08F81D
:103D5000024003F1030201D11346C6E7C4790433DC
:103D6000182B08F80240BFD8027A182B08F8032055
:103D700003F10102F0D0447A162B08F8024003F157
:103D80000202E9D8847A162B08F8024003F10302F4
:103D9000E2D0C47A0433182B08F80240A4D8027B7E
:103DA0004FF0203E4FF0020A08F80320182B03F1D1
:103DB000010205D11346DDF824B0764695E700BF31
:103DC000447BC14608F80240162B03F1020206D8D4
:103DD000847B162B09F8024003F1030206D1DDF8BB
:103DE00024B013467646C8467FE700BFC47B043341
:103DF000C84609F802401A46DDE700BFBCF1000FD3
:103E00001CD0182A1CD80378182A08F8023002F1AE
:103E100001033FF460AF4578162A08F8035002F119
:103E200002033FF658AF8578162A08F8035002F1CE
:103E300003031D467FF44BAF03E000BF154644E08B
:103E40001546BCF1010F01D104303EE0182D19D800
:103E50000279182D05F1010308F8052011D04279E7
:103E6000162D08F8032005F102030AD88279162DD1
:103E700008F8032005F1030303D0C27908F80320F2
:103E80002B1D1D46BCF1020F02D108301DE000BF02
:103E9000182D19D8027A182D05F1010308F805200C
:103EA00011D0427A162D08F8032005F102030AD832
:103EB000827A162D08F8032005F1030303D0C27A95
:103EC00008F803202B1D1D460C30C9B1182D00F138
:103ED000010204D8037808F805306B1C1D4601293F
:103EE0000ED0182D0CD81278022905F1010308F81C
:103EF000052018BF182D03D0807808F80300AB1CEC
:103F00005293584605214246192300F005FE72B629
:103F1000FCF740FB4CF2482162B6C2F2010188680E
:103F2000496840F20C558842C5F20005BFF35F8F27
:103F300040F00A844FA846A900F068FF5098E8B303
:103F4000089A45F256511044C5F2555150FB01F103
:103F500001EBD17101EB4101401A48BF03300790DA
:103F6000202040A988F8180001EBC20051F8321057
:103F700042685AAD2846C8E90066C8E90266C8E941
:103F80000466D146CDF848A104F0B3FDDDE95A102E
:103F9000002918BF012040F04E815C99002900F0F3
:103FA0004A814A1E032A01F0030E0DD2BEF1000F12
:103FB00000F04081421C022324E100BFDDF820A074
:103FC0004FF0020BA4E200BF0A1F012101EB920196
:103FD0000C2A01F0030C13D2BCF1000F00F00B818E
:103FE000017802228DF84E11B0F80110ADF84F1192
:103FF0000521C37808F80130111D0B46B7E000BF5A
:1040000021F003030221022206E000BF0A46043B1E
:1040100000F1100000F08880182AF8D80178182ADA
:1040200008F8021002F10101F0D04478162A08F8CD
:10403000014002F10201E9D88478162A08F801400B
:1040400002F10301E2D0C47808F80140111D1829DB
:10405000DCD80279182908F8012001F101020DD0FD
:104060004479162908F8024001F1020206D8847941
:10407000162908F8024001F1030201D11146C6E7F2
:10408000C4790431182908F80240BFD8027A1829E7
:1040900008F8012001F10102F0D0447A162908F84D
:1040A000024001F10202E9D8847A162908F8024098
:1040B00001F10302E2D0C47A0431182908F8024061
:1040C000A4D8027B4FF02035022608F801201829D9
:1040D00001F1010202D11146B1461FE0447BC24604
:1040E00008F80240162901F1020206D8847B16293D
:1040F0000AF8024001F1030208D1DDF824B01146AC
:10410000B1462E465AADD04681E700BFC47B04318C
:10411000D0460AF802400A464FF00209DDF824B002
:104120002E465AAD73E700BFBCF1000F1CD0182A11
:104130001CD80178182A08F8021002F101013FF496
:104140005CAF4378162A08F8013002F102013FF60D
:1041500054AF8378162A08F8013002F103010B46A8
:104160007FF447AF03E000BF134644E01346BCF1C1
:10417000010F01D104303EE0182B19D80179182B1A
:1041800008F8031003F1010111D04279162B08F849
:10419000012003F102010AD88279162B08F80120C8
:1041A00003F1030103D0C27908F80120191D0B4661
:1041B000BCF1020F02D108301DE000BF182B19D846
:1041C000017A182B08F8031003F1010111D0427A8B
:1041D000162B08F8012003F102010AD8827A162B67
:1041E00008F8012003F1030103D0C27A08F8012086
:1041F000191D0B460C30BEF1000F1BD0182B00F11F
:10420000010204D8017808F80310591C0B46BEF1CE
:10421000010F0FD0182B0DD81178BEF1020F08F83E
:10422000031003F1010118BF182B03D0807808F8A0
:104230000100991C529108984246C11C5846192306
:1042400000F06AFCDDF81CA0202088F818003E2051
:10425000BAF1020FC8E90066C8E90266C8E9046657
:104260008DF84C01CDF8489100F24E8440A901EB45
:10427000CA0051F83A104268284604F03AFCDDE9D9
:104280005A10002918BF012040F039815C9900299B
:1042900000F035814A1E032A01F0030E06D2BEF15A
:1042A000000F00F02B81421C02230FE10A1F0121A5
:1042B00001EB92010C2A01F0030C13D2BCF1000FA8
:1042C00000F0FD80017802228DF84E11B0F8011047
:1042D000ADF84F110521C37808F80130111D0B46C8
:1042E000A9E000BF21F003030221022205E000BF84
:1042F0000A46043B00F110007AD0182AF9D8017858
:10430000182A08F8021002F10101F1D04478162AA7
:1043100008F8014002F10201EAD88478162A08F868
:10432000014002F10301E3D0C47808F80140111DF7
:104330001829DDD80279182908F8012001F10102B5
:104340000DD04479162908F8024001F1020206D87E
:104350008479162908F8024001F1030202D11146BE
:10436000C7E700BFC4790431182908F80240BFD854
:10437000027A182908F8012001F10102EFD0447AED
:10438000162908F8024001F10202E8D8847A1629B9
:1043900008F8024001F10302E1D0C47A043118297F
:1043A00008F80240A4D8027B182908F8012001F17E
:1043B000010201D1114618E0447B454608F802404D
:1043C000162901F1020205D8847B1629AC5401F1AB
:1043D000030205D1DDF81CA01146A84689E700BFFD
:1043E000C47B0431A846AC540A46DDF81CA080E723
:1043F000BCF1000F1CD0182A1CD80178182A08F824
:10440000021002F101013FF46AAF4378162A08F85E
:10441000013002F102013FF662AF8378162A08F8F4
:10442000013002F103010B467FF455AF03E000BFFA
:10443000134644E01346BCF1010F01D104303EE0C5
:10444000182B19D80179182B08F8031003F1010172
:1044500011D04279162B08F8012003F102010AD885
:104460008279162B08F8012003F1030103D0C279E9
:1044700008F80120191D0B46BCF1020F02D10830CB
:104480001DE000BF182B19D8017A182B08F803106B
:1044900003F1010111D0427A162B08F8012003F133
:1044A00002010AD8827A162B08F8012003F10301D1
:1044B00003D0C27A08F80120191D0B460C30BEF15A
:1044C000000F1BD0182B00F1010204D8017808F866
:1044D0000310591C0B46BEF1010F0FD0182B0DD83D
:1044E0001178BEF1020F08F8031003F1010118BFA3
:1044F000182B03D0807808F80100991C5291099874
:104500000AF10301424619234FF0020B00F004FBAD
:104510009DF844014CF248260028C2F2010653D10E
:1045200041F20400CEF200000268B069D6E90A1335
:10453000101A401843F10001B2614FF47A4200238F
:104540004FF02039C6E90A0109F014F910F16404AA
:1045500041F1000541F20400CEF200000268B069AA
:10456000D6E90A13101A401843F10001B2614FF462
:104570007A420023C6E90A0109F0FCF8001B71EB3E
:1045800005000BD272B6FCF705F862B6B068716828
:10459000BFF35F8F8842DDD0D2E000BF72B6FBF779
:1045A000F9FF62B6B0687168BFF35F8FCDF820A0E5
:1045B00040F20C55DA46DDF824B08842C5F2000519
:1045C0004E463FF4B7ACBFE0BAF1020FCDF8C4A13C
:1045D00044D2DDE962014FF47A72002309F0CAF88F
:1045E0008DE8030878204EF282520024049052A8ED
:1045F0005EA9C0F200020A2303942646059401F046
:10460000F1FEDDE9520180F00202114300F09880D2
:10461000C00767D0DDE954014FF47A72A0FB023085
:1046200001FB02055EA801215246CDE96235CDE9C4
:10463000003500F069FD40F20C554EF261514EF22A
:104640006E520028C5F200054FF0010C3446C0F24E
:104650000001C0F200025ED176E000BFDDE9640136
:104660004FF47A72002309F085F8CDE900010120AA
:10467000824602903C204EF28F520024049052A8B1
:104680005EA9C0F200020C2303942646059401F0B3
:10469000A9FEDDE9520140F20C5580F002021143FF
:1046A000C5F2000550D0C0072CD0DDE954014FF40D
:1046B0007A73A0FB032001FB03035EA80021CDE970
:1046C0006423CDE9002300F01FFD4EF261514EF24C
:1046D0006E523446C0F20001C0F20002D446D0B996
:1046E00032E000BF40F20C554EF261514EF26E5274
:1046F000C5F200054FF0010C3446C0F20001C0F2D3
:10470000000208E04EF261514EF26E52C0F200011A
:10471000C0F20002D44671989DF8D0A14EF2545ECA
:104720004EF2775B2B4607904FF02036C0F2000E1A
:104730000D200925C0F2000B0DF5B479FEF749BF35
:1047400040F20C55C5F20005012001210122002391
:1047500000F0E2F9012002210122002300F0DCF93F
:10476000012003210122002300F0D6F901200421B9
:104770000122002300F0D0F90120052101220023AD
:1047800000F0CAF9012006210122002300F0C4F93B
:10479000012007210122002300F0BEF90120082199
:1047A0000122002300F0B8F94EF2A942C0F2000243
:1047B00001200321112300F0AFF90020CDE94600CC
:1047C00040F2000049F2C011C0F28000C0F2800146
:1047D000081A089049F2C0104BF2C031C2F2000032
:1047E000C2F20001081A07904BF2C0304CF2782157
:1047F000C2F20000C2F201014FF400184FF4800B26
:10480000081A0DF1280900245EAE069001E000BFF1
:1048100062B672B6FBF7BEFE4CF2482262B6C2F236
:10482000010290685168BFF35F8F88423AD172B637
:1048300090685168BFF35F8F8842E9D142F2081057
:10484000C4F2000000680028E2D130BFE0E700BFFA
:104850004FF400404FF08071C5F80080C5F800B0FB
:10486000286029604FF4002129604FF0805145F8FD
:10487000041C4FF4006145F8041C4FF00041202354
:1048800045F8041CC5F8FC324FF0804345F8043C61
:1048900045F8040C296090685168BFF35F8F099C4C
:1048A0008842C4D04BF2C031C2F2000111F800A01E
:1048B00001306FF35F20BAF10A0FBFF35F8F906092
:1048C00002D0BAF10D0F65D14FF40040C5F8008059
:1048D000C5F800B028604FF0807028604FF40020C9
:1048E00028604FF080504FF4006145F8040C45F803
:1048F000041C4FF0004145F8041C2021C5F8FC12AF
:104900004FF08041092C45F8041C45F8048C2860C0
:1049100080F0CE80072C40F08B809DF81E01BDF802
:104920001C1146F26D5241EA00404699C7F26D32C1
:10493000514046F2741220F07F40C0F274025040A1
:1049400008434FF0000474D108984CF278235D902E
:104950000798C2F201034F9006984BF6EF645A9005
:104960001868CDF6AD64A0421CD14CF24826002058
:10497000C2F2010619184A68A24219D18A68A242F5
:104980001AD1CA68A2421BD109691030A142F1D0E4
:1049900018E000BF082C4CD246A800F804A001344F
:1049A00047E000BF4CF248260020C2F2010609E0B1
:1049B00040F0040006E000BF40F0080002E000BF45
:1049C00040F00C00409041F20400CEF2000000687C
:1049D000B169D6E90A23411A8918B0615DA843F18B
:1049E00000025E9048F20970C6E90A12CDE952123F
:1049F000C0F200004FA9CDE960105AA9CDE96210BC
:104A000040A95F90CDE9641052A8669048F6E57021
:104A1000C0F200004EF274414DF692325EAE6790E5
:104A20004846C0F20001C0F20002334603F0C0F96C
:104A30000024484651460994FBF7EAFD129C4CB30A
:104A40000020129037A93046B3466CC9212C6CC0A7
:104A500091E86C006CC035D258464946224608F0B1
:104A600039FD64424FF0FF385E4600BF06EB080098
:104A700041784846FBF7CCFD08F1010804EB08003B
:104A80000130F3D140F20C55C5F200054FF4001887
:104A90004FF4800B4CF24822BAF10A0FC2F2010225
:104AA0003FF4D6AEBAF10D0F3FF4D2AEF3E600BF3D
:104AB0004EF2CC43C0F2000300202146082203F04E
:104AC000F3FF00BF4EF2BC43C0F2000300202146BA
:104AD000202203F0E9FF00BF4EF2F843C0F20003CA
:104AE00001202146042203F0DFFF00BF4EF62870AC
:104AF000C0F2000003F0D4FF4EF2B472C0F2000224
:104B00004FF4806103F0FCFD4EF26442C0F20002FB
:104B10005046032103F0F4FDC00708BF7047F0B50D
:104B200003AF2DE9000FA1B098464BF6C013914694
:104B3000C2F20003002221201A7058707F209A7060
:104B4000D870C8B2014643F2C446082828BF0821DD
:104B5000C4F20006002818BF481E3C2143F2041589
:104B6000C6F8C4100421C4F2000548F2814BC6F80F
:104B70008030C6F884104FF40071C0F21E0B2A601A
:104B80002A62EA65C5F8FC10012145F8FC1C59466B
:104B90002A682AB92A6A4AB90139F9D11EE000BF48
:104BA0000021C5F8FC10316818E000BF48F2A06190
:104BB0000122C0F2010145F8F02C00222B684BB90C
:104BC0008A4207D22B682BB92B681BB92B68043299
:104BD000002BF3D00F213160002129624BF6C01366
:104BE0000021C2F20003222219705A709870D87006
:104BF0003C20C6F8C4000420C6F88030C6F8840003
:104C00004FF4007029602962E965C5F8FC000120B5
:104C100045F8FC0C584600BF296829B9296A49B9EA
:104C20000138F9D11EE000BF0020C5F8FC00306853
:104C300018E000BF48F2A0600121C0F2010045F871
:104C4000F01C00212A684AB9814207D22A682AB991
:104C50002A681AB92A680431002AF3D00F2030607C
:104C600000202862A7F19D0A0AF10100802107F0C7
:104C700046FF4EF208554EF6440C40200023C0F289
:104C80000005C0F2000C3E2207F89D0C2946434562
:104C900038BF09EB030191F900101F29C6BF0CEBC7
:104CA000810050F8804C002403EB8301514402EA58
:104CB00044064E7002EA14168E7002EA5426CE7034
:104CC00002EA94360E7102EAD446182B4E711FD0B8
:104CD00001332846434538BF03EB090090F90040F3
:104CE0000133202CA6BF0CEB840050F8804C00242C
:104CF00002EA4400887102EA1410C87102EA5420E2
:104D0000087202EA9430487202EAD4408872BDE721
:104D100043F2C44C4BF6C01E0020C4F2000CC2F299
:104D2000000E00BF1AF800300AEB00020EF8003047
:104D300053789578D47816790EEB00014B708D700E
:104D4000CC700E71537978284B7193798B71D3792C
:104D5000CB71137A0B7207D0537A967AD27A4B7250
:104D60008E720C30CA72DDE73C20CCF8C400812082
:104D700043F20413CCF880E0CCF884000020C4F2A5
:104D8000000318601862D8654FF40070C3F8FC0087
:104D9000012043F8FC0C00BF186858B9186AA8B97C
:104DA000BBF1010BF8D121B0BDE8000FBDE8F04028
:104DB000704700BF0020C3F8FC00DCF8000021B001
:104DC000BDE8000FBDE8F040704700BF48F2A060AA
:104DD0000121C0F2010043F8F01C00211A684AB911
:104DE000814207D21A682AB91A681AB91A680431B6
:104DF000002AF3D00F20CCF800000020186221B068
:104E0000BDE8000FBDE8F0407047D4D4F0B503AF63
:104E10002DE9000F81B04CF24828814641F2040090
:104E2000C2F20108CEF2000000224546036825F8D0
:104E30001C2F55F8040C8A46D5E90341181A47F28D
:104E40000016001947F2145BC4F2000641F2005C40
:104E500041F1000145F8043C0223C4F2000BC0F20A
:104E6000020CC5E90301C6F810340123CBF8002079
:104E7000CBF804C0CBF8DC30CBF8E020CBF8E42052
:104E8000CBF818516FF0FF05CBF81C31C6F8003491
:104E9000326072607261735142F20F7335684DB9BE
:104EA0009A4207D835682DB935681DB9356804327E
:104EB000002DF3D0012246F8FC2C002242F20F73A1
:104EC00075684DB99A4207D875682DB975681DB9CE
:104ED00075680432002DF3D0012246F8F82C002228
:104EE00042F20F7375694DB99A4207D875692DB9A9
:104EF00075691DB975690432002DF3D04FF47A42FB
:104F00000023002408F036FCC6F80044C6F810441C
:104F1000B8F91C20B2F5967F10DA4FF0FF33DAF8BB
:104F20001020A2B193424FF0000C1ED1DAE9002507
:104F3000821A71EB050218D378220CE092B2B2F516
:104F40002F7F0FD90123DAF81020002AEAD14FF081
:104F5000000C4FF4C872121841EB0C059C46CAE9CC
:104F6000002502E000234FF0000CCAF810300023A7
:104F70004246032522F81C3FC6F8105441F2005562
:104F8000C0F20205CBF80030CBF804500125CBF875
:104F9000DC50CBF8E030CBF8E430CBF818216FF0E0
:104FA000FF02CBF81C51C6F8005433607360736184
:104FB000B55042F20F7500BF32684AB9AB4207D80C
:104FC00032682AB932681AB932680433002AF3D039
:104FD0000122002342F20F7546F8FC2C72684AB990
:104FE000AB4207D872682AB972681AB9726804337A
:104FF000002AF3D00122002342F20F7546F8F82C64
:1050000072694AB9AB4207D872692AB972691AB98A
:1050100072690433002AF3D00022C6F80024C6F8CF
:105020001024B8F91C20B2F5967F11DA4FF0FF3347
:10503000DAF81420AAB193424FF0000E1DD1DAE93C
:105040000224821A71EB040217D378300BE000BF00
:1050500092B2B2F52F7F0DD90123DAF81420002A7D
:10506000E9D110F5C87041F10001CAE902019E467C
:1050700003E000BF00234FF0000E40F21051CAF8C9
:105080001430C5F2000108680B680D68096800F467
:105090008050012203F4003305F0020501F4000101
:1050A00082EA103882EA534382EA550582EAD151F6
:1050B0009AF818209AF819409AF81A609AF81B0082
:1050C00082F0010284F0010486F0010680F0010004
:1050D00002EA08021C402E400840C9E900CE89F8C7
:1050E000082089F8094089F80A6089F80B008AF8D5
:1050F00018808AF819308AF81A508AF81B1001B003
:10510000BDE8000FF0BDD4D4F0B503AF2DE9000F1A
:10511000ADF2246D8046006CD7E9029A16461991CB
:1051200005F0B6F84EF6F0610DF54C7BD8F844402A
:10513000C0F200015846382203F09AFFCC98C0070D
:1051400009D00BF1080104F17800A82208F06DFAEB
:105150000020C4F880050820424642F8200F46F699
:105160006E701692C6F26E50424642F8240F47F611
:1051700020104FF02031C7F26540C8E90A01202015
:1051800088F83C00701ECDE94311CDE94511CDF8FA
:105190001B11C8E90C11C8F83810B0FA80F0199941
:1051A0004009084040F20C534FF0000488F85900C1
:1051B0004FF007014FF00400C5F200031092C8F849
:1051C000004018BF0320C8E91410C8F80840586808
:1051D000012500F4805085EA103059685A685B68F0
:1051E0008DF880000BF104001790A7F1E80001F49E
:1051F000003102F0020203F40003CDE91A44CDE9C4
:105200001C44CDE91E440C30A7F1C80485EA514185
:1052100085EA520285EAD3530F9004F10C008DF811
:1052200081108DF882208DF883300E9048465146CB
:105230004FF47A72002308F09DFACDE90C10A7F123
:10524000A80000F15001149100F10B010B9104F141
:1052500012011191A7F13C011131069114303BA9C3
:105260000590081D08900BF10A004CF2482909909E
:1052700001F10A00C2F201094FF4001A07901596D5
:10528000D8F84410584602F07BF8CC98012800F07A
:10529000E7861998C00700F01784D8F8444094F8BE
:1052A0001801864240F0108458464FF4017108F00E
:1052B0000AFA04F17800594604F034FF48A8594628
:1052C0004FF4017208F006F940F20C53C5F20003E6
:1052D000586859685A685B6800F48050012601F4E8
:1052E000003186EA103086EA514102F0020203F4EE
:1052F000000386EA520286EAD3534FF0000A07F809
:10530000D00C07F8CF1C4046002147E93AAA47E9EC
:1053100038AA47E936AA07F8CE2C07F8CD3CC8F8DA
:1053200008A001F08BFA4046012101F087FA4046BF
:10533000022101F083FA4046032101F07FFA404642
:10534000042101F07BFA4046052101F077FA40463E
:10535000062101F073FA4046072101F06FFA72B698
:10536000FBF718F962B6D9F80800D9F80410BFF3B2
:105370005F8F884240F06C8600201890C9A8A7F182
:10538000E801FFF743FD9DF82E032024002800F0DC
:10539000A18117994FF020300C76C1E90000C1E9D6
:1053A0000200C1E904001199CDF830A308604860FB
:1053B000C1F807000E2047F8C80C46F64560C6F64F
:1053C000671047F8C40C46F26E50C7F2200047F849
:1053D000C00C46F26C10C6F2795047F8BC0C169817
:1053E000026843F664201A2A27F8B80C80F0D687A2
:1053F000A7F1A805109928464FF0000A03F079FBA1
:10540000A7F1A80207CA2B4600280DF5A8601CBF0B
:105410000121002247F8A80C47F68110CDF840156D
:10542000CDF84425C0F200004EF20C514DF67752F3
:1054300047F8A40C5846C0F20001C0F2000202F086
:10544000B7FC58466CC8A7F13C016CC190E86C00F1
:105450006CC1D8F8000001282ED1D8F8040047F616
:10546000BF41884246DD179A4FF02031C2E9001152
:10547000C2E90211C2E9041147F60151081A00EB12
:10548000D0704010CDF83C050DF23C50CDF84005F1
:1054900048F6E1601476C0F200004EF20C514DF671
:1054A0007952CDF830A3CDF844055846C0F200013A
:1054B000C0F2000293E000BF0B9942F22000088284
:1054C0004FF02030C860886048600860072047F8C7
:1054D000A80C47F24560C6F6614047F8A40C42F2BA
:1054E0003A0027F8A00C2D2007F89E0CA7F1A8037E
:1054F00084E000BF48F24131CFF6FF718842524646
:1055000028DA179B4FF02031C3E90011C3E90211DB
:10551000C3E9041147F60151084400EBD070401074
:10552000CDF83C050DF23C50CDF8400548F6E16061
:105530009246CC92C0F200004EF20C514DF6017230
:10554000CDF844055846C0F20001C0F200021C76B6
:1055500045E000BF2B21002844BF2D214042179B6E
:10556000CDF834154FF02031C3E90011C3E9021121
:10557000C3E9041181B29246CC92890841F27B4280
:105580005143490C6FF0630211FB020080B2CDF869
:105590003C050DF23450CDF8400548F64160CDF899
:1055A0003815C0F2000048F61361CDF844050DF53A
:1055B000A760C0F20001CDF84805CDF84C150DF2FA
:1055C0003C50CDF854154EF20C514EF2BC521C76A4
:1055D000CDF850055846C0F20001C0F200020DF5AA
:1055E000A86302F0E5FBA7F1A803A446BBE874009A
:1055F000184674C09BE8740074C0644698F858005C
:10560000A7F1C801A7F13C0201F0CAF841F2040079
:10561000CEF200000268D9F81800D9E90A13101A6E
:10562000401843F10001C9F818204FF47A420023D2
:10563000C9E90A0108F09EF840F6C412851841F144
:10564000000600BF41F20400CEF200000268D9F863
:105650001800D9E90A13101A401843F10001C9F8DB
:1056600018204FF47A420023C9E90A0108F082F8B1
:10567000401B71EB06000DD272B6FAF78BFF62B6D3
:10568000D9F80800D9F80410BFF35F8F8842D9D049
:1056900000F0DEBC4046002101F0D0F84046012178
:1056A00001F0CCF84046022101F0C8F84046032141
:1056B00001F0C4F84046042101F0C0F8404605213D
:1056C00001F0BCF84046062101F0B8F84046072139
:1056D00001F0B4F89DF82FB30DF5907CBBF1000FED
:1056E00005D0D8F80800002864D0C8F808A09DF8B4
:1056F0002C034FF0000A002800F0FE8098F85900B3
:10570000D8E91421002814BFC1F10701C2F1070232
:1057100001EBC2003F2800F25586D8F84410D8E9C2
:1057200002260B1893F8D830861B18BF01260F2BC2
:105730001CBF82F0010456EA040600F0DF8091F8F5
:105740001811B1EBD30F40F0D980C899B1F5807F23
:1057500000F22E860CEB410349006446002900F05C
:10576000CD80264636F8025B05F03F05A8421BD0E7
:105770009E4200F0C380668806F03F06B04213D018
:10578000261D9E4200F0BA80A68806F03F06B04271
:105790000AD0A61D9E4200F0B180E688083406F0CB
:1057A0003F060839B042D9D10122C8E902204FF0A2
:1057B000010BA3E01898C00740F0DE8517994FF061
:1057C00020300C76C1E90000C1E90200C1E9040003
:1057D0000699A7F1A8020860486088600D2147F883
:1057E0003C1C47F25021C7F2653147F8381C42F2A1
:1057F0007301C2F2420147F8341C46F26171C6F6E9
:10580000611147F8301C6E2107F82C1C0599CCABB0
:10581000C1E90000102047F8A80C46F67470C7F2E2
:10582000201047F8A40C46F67510C2F2740047F831
:10583000A00C46F67400C2F2650047F89C0C46F2D4
:105840006710C6F26D5047F8980C98F858000C7223
:10585000A7F13C01CDF830A300F0A2FF41F2040013
:10586000CEF200000268D9F81800D9E90A13101A1C
:10587000401843F10001C9F818204FF47A42002380
:10588000C9E90A0107F076FF10F5966441F10006B8
:1058900041F20400CEF200000268D9F81800D9E9FC
:1058A0000A13101A401843F10001C9F818204FF4E8
:1058B0007A420023C9E90A0107F05CFF001B71EB83
:1058C00006000DD272B6FAF765FE62B6D9F8080086
:1058D000D9F80410BFF35F8F8842D9D0B8E300BF76
:1058E000012018900DF5907C9DF82C034FF0000AD4
:1058F00000287FF403AF00BFD8F808209DF82D03DF
:10590000012845D1002A43D098F85930D8E914121B
:10591000002B13460E46D8F80C0014BFC3F1070342
:10592000C6F1070603EBC60383420DD1DDE9C9309A
:10593000C8F808A053EA000646D0B3FA83F6760901
:105940004FF0010B33E000BFC899B1F5807F00F242
:105950002F85E9B14900002203E000BF02329142E5
:1059600016D03CF8026006F03F05A842F6D1C6F317
:105970008515AB42F2D106F44045B5F5804F40F0B5
:10598000FF8206F44055B5F5405FE7D1F8E200BF6D
:10599000DDE9C93053EA000104D1BBF1000F13D196
:1059A00033E000BFB3FA83F6D8E9141276091A443B
:1059B000084482F3030280F30304BBF1000FC8E93B
:1059C000144275D0002018904046002100F036FFA8
:1059D0004046012100F032FF4046022100F02EFF38
:1059E0004046032100F02AFF4046042100F026FF34
:1059F0004046052100F022FF07240621404600F022
:105A00001DFF2146404600F019FF41F20400CEF28E
:105A100000000268D9F81800D9E90A13101A4018D2
:105A200043F10001C9F818204FF47A420023C9E974
:105A30000A0107F09FFE10F1640541F1000600BF66
:105A400041F20400CEF200000268D9F81800D9E94A
:105A50000A13101A401843F10001C9F818204FF436
:105A60007A420023C9E90A0107F084FE401B71EB6A
:105A700006000DD272B6FAF78DFD62B6D9F80800AD
:105A8000D9F80410BFF35F8F8842D9D0E0E200BF9D
:105A900072B6FAF77FFD62B6D9F80800D9F804109B
:105AA0000DF54C7B8842BFF35F8F3FF467ACCFE2CC
:105AB0008C4205D1002E4FF000001890A2D0A4E730
:105AC000002018909AE700BF1998CDF8608040F246
:105AD0000C58C5F200084FF4800528BB189C002123
